:020000040800F2
:10000000980B002001010008FD100008A90300085A
:10001000310F0008330200085F1A000800000000DA
:10002000000000000000000000000000951500081E
:1000300037020008000000005D140008A91600083F
:100040001B0100081B0100081B0100081B01000820
:100050001B0100081B0100081B0100081B01000810
:100060001B0100081B0100081B0100081B01000800
:100070001B0100081B0100081B0100081B010008F0
:100080001B0100081B0100081B0100081B010008E0
:100090001B0100081B0100081B0100081B010008D0
:1000A0001B0100081B0100081B0100081B010008C0
:1000B0001B0100080D1700081B0100081B010008A8
:1000C0001B0100081B0100081B0100081B010008A0
:1000D0001B0100083D1800081B0100081B01000857
:1000E0001B0100081B0100081B010008DFF80CD0F1
:1000F00000F040F8004800470D1D0008980B002054
:100100000648804706480047FEE7FEE7FEE7FEE7B1
:10011000FEE7FEE7FEE7FEE7FEE7FEE7AD160008B6
:10012000ED00000840EA01039B0703D009E008C97D
:10013000121F08C0042AFAD203E011F8013B00F8AC
:10014000013B521EF9D2704730B50B4601460020E4
:100150002022012409E021FA02F59D4205D303FA89
:1001600002F5491B04FA02F52844151EA2F101020A
:10017000F1DC30BD064C074D06E0E06840F00103BD
:1001800094E8070098471034AC42F6D3FFF7B2FF6B
:10019000D42C0008F42C000870B58C1810F8015B02
:1001A00015F0070301D110F8013B2A1106D110F810
:1001B000012B03E010F8016B01F8016B5B1EF9D114
:1001C0002B0705D40023521E0DD401F8013BFAE79A
:1001D00010F8013BCB1A921C03E013F8015B01F805
:1001E000015B521EF9D5A142D8D3002070BD10B5D5
:1001F00000F04AFD00F054FD00F05EFD00F068FDE7
:1002000000F070FD00F078FD00F084FD00F08CFD42
:1002100000F094FD00F0F2FC00F0FAFC00F002FDAA
:1002200000F00AFD00F012FD00F01AFD00F022FDC2
:1002300010BD00BFFEE770472DE9F04102460025E2
:100240000026002000230024002791F803C00CF0B2
:100250000F0591F803C00CF0100CBCF1000F03D097
:1002600091F802C04CEA050591F800C0BCF1000FFE
:1002700031D0146800202BE04FF0010C0CFA00F391
:10028000B1F800C00CEA03069E4220D183004FF073
:100290000F0C0CFA03F7BC4305FA03FC4CEA040408
:1002A00091F803C0BCF1280F06D14FF0010C0CFAF5
:1002B00000FCC2F814C00AE091F803C0BCF1480F7A
:1002C00005D14FF0010C0CFA00FCC2F810C0401C24
:1002D0000828D1D31460B1F800C0BCF1FF0F34DDA1
:1002E000546800202EE000F1080C4FF0010808FAD5
:1002F0000CF3B1F800C00CEA03069E4221D1830042
:100300004FF00F0C0CFA03F7BC4305FA03FC4CEA60
:10031000040491F803C0BCF1280F05D100F1080CCA
:1003200008FA0CF8C2F8148091F803C0BCF1480F29
:1003300007D100F1080C4FF0010808FA0CF8C2F8D8
:100340001080401C0828CED35460BDE8F0810246DE
:10035000002093680B400BB1012000E000207047A3
:10036000416170470161704710B50A48008800F488
:10037000004070B1084800780849086008460068E5
:1003800000EB8000410006A001F07AFB002001494B
:10039000088010BD70060020A8060020700700200D
:1003A00025640D0A0000000000BFFEE770B502469C
:1003B0000024002500230020958A138B1B0445EAA6
:1003C000030626F07F4404EA01068E4201D1012093
:1003D00000E0002070BD21B1028842F001020280DD
:1003E00004E002884FF6FE731A4002807047000056
:1003F00000B585B00121480501F032F8012108203F
:1004000001F04EF8C020ADF8000003208DF8020086
:100410001C208DF8030069461148FFF70DFF1148B5
:1004200000F024F80020ADF808004BF6FF70ADF89E
:100430000A003020ADF80C004FF48060ADF80E00DB
:100440000001ADF810000848019001210548FFF7B0
:10045000C2FF01A9034800F05BF805B000BD000031
:10046000000C014000540040801A060010B50446FC
:100470000B48844209D10121480501F001F800210F
:100480004FF4001000F0FCFF08E00121880500F0A7
:10049000F7FF00214FF4800000F0F2FF10BD0000D4
:1004A0000054004021B1028842F48072028004E0CE
:1004B00002884FF6FF631A400280704721B102881C
:1004C00042F40072028004E002884FF6FF531A40A3
:1004D000028070470CB50246002000230193009370
:1004E00000920B0F019321F07F41019B1BB1009BF8
:1004F0001433009303E0090C009B18330093009B16
:100500001B680B400BB1012000E000200CBD000077
:100510002DE9F04385B004460D460026B146042778
:10052000DFF8CC80A6884FF6C0700640684600F021
:10053000C7FFDDF808802F48B8FBF0F01FFA80F9FC
:1005400046EA0906A68020884FF6FE710840208002
:1005500000262949286888420CD828684000B8FB42
:10056000F0F087B2042F00DA04273E4309F10100BE
:10057000208427E0E8884BF6FF71884206D128687E
:1005800000EB4000B8FBF0F087B209E0286800EB10
:10059000C00101EB0010B8FBF0F087B247F48047D0
:1005A000C7F30B0008B947F0010747F400400643C2
:1005B0004FF4967009FB00F04FF47A7190FBF1F064
:1005C000401C2084A683208840F0010020802688DB
:1005D0004FF6F5300640A88869890843064326800F
:1005E000A88929890843208105B0BDE8F08300006F
:1005F00000127A0040420F00A086010012B141F0C3
:10060000010102E04FF6FE7319400182704701823A
:100610007047000070B504460D4600BF4FF400312E
:100620001C48FFF757FF0028F8D101211948FFF7B0
:1006300039FF00BF18491748FFF7B8FE0028F9D066
:10064000002278211348FFF7D9FF00BF1349114852
:10065000FFF7ACFE0028F9D021460E48FFF7D7FF80
:1006600000BF0E49891C0B48FFF7A0FE0028F8D0F8
:1006700029460848FFF7CBFF00BF0849891C0548F9
:10068000FFF794FE0028F8D001210248FFF716FF7B
:1006900070BD00000054004001000300820007000C
:1006A00010B514480078072820D2DFE800F00416BF
:1006B000191C070C110001F0FBFC18E001F01CFCF8
:1006C00001F0F6FC13E001F039FC01F0F1FC0EE062
:1006D00001F0F0FB01F0ECFC09E001F051FC06E058
:1006E00001F060FD03E001F061FB00E000BF00BF2E
:1006F00010BD00001C00002010B5044604B301200A
:10070000F6490870F6490870F6490870F64908700D
:10071000F6490870F6490870F6490870F6490870FD
:10072000F6490870F6490870F6490870F6490870ED
:10073000F6490870F6490870F6490870F6490870DD
:100740000121F648FFF70CFE0221F448FFF70AFEEC
:100750000421F248FFF706FE0821F048FFF702FEE9
:10076000DF48007888B11021EC48FFF7F0FD60B950
:10077000012001F068FA0020D94908701021E748EB
:10078000FFF7E5FD48B9012010BD1021E348FFF750
:10079000DEFD012801D1D2490870D248007888B125
:1007A0002021DE48FFF7D3FD60B9012001F04BFAAC
:1007B0000020CC4908702021D848FFF7C8FD48B96F
:1007C0000220E1E72021D548FFF7C1FD012801D132
:1007D000C4490870C448007888B14021CF48FFF769
:1007E000B6FD60B9012001F02EFA0020BE49087064
:1007F0004021CA48FFF7ABFD48B90320C4E74021B8
:10080000C648FFF7A4FD012801D1B7490870BD48CB
:10081000007888B18021C148FFF799FD60B90120B7
:1008200001F011FA0020B74908708021BB48FFF79A
:100830008EFD48B90420A7E78021B848FFF787FD5F
:10084000012801D1AF4908700121B448FFF78AFDA2
:100850000221B248FFF784FD0421B048FFF782FD72
:100860000821AE48FFF77EFDA048007888B110212E
:10087000AA48FFF76CFD60B9012001F0E4F90020FF
:100880009A4908701021A548FFF761FD48B9052075
:100890007AE71021A148FFF75AFD012801D19349B9
:1008A00008709348007888B120219C48FFF74FFDDD
:1008B00060B9012001F0C7F900208D49087020219E
:1008C0009648FFF744FD48B906205DE7202193488C
:1008D000FFF73DFD012801D1854908708548007862
:1008E00088B140218D48FFF732FD60B9012001F049
:1008F000AAF900207F49087040218848FFF727FDAA
:1009000048B9072040E740218448FFF720FD01282F
:1009100001D1784908707C48007888B180217F48EF
:10092000FFF715FD60B9012001F08DF9002076492F
:10093000087080217948FFF70AFD48B9082023E7AD
:1009400080217648FFF703FD012801D16E49087028
:1009500001217248FFF706FD02217048FFF702FDF2
:1009600004216E48FFF7FCFC08216C48FFF7FAFCF5
:100970006148007888B110216848FFF7E8FC60B949
:10098000012001F060F900205B49087010216348E4
:10099000FFF7DDFC48B90920F6E610215F48FFF7B4
:1009A000D6FC012801D1544908705448007888B118
:1009B00020215A48FFF7CBFC60B9012001F043F930
:1009C00000204E49087020215448FFF7C0FC48B968
:1009D0000A20D9E620215148FFF7B9FC012801D1AE
:1009E000464908704648007888B140214B48FFF7D7
:1009F000AEFC60B9012001F026F9002040490870E2
:100A000040214648FFF7A3FC48B90B20BCE6402133
:100A10004248FFF79CFC012801D1394908703B4846
:100A2000007888B180213D48FFF791FC60B9012032
:100A300001F009F900203549087080213748FFF797
:100A400086FC48B90C209FE680213448FFF77FFCE4
:100A5000012801D12D49087001213048FFF782FC9F
:100A600002212E48FFF77EFC04212C48FFF77AFC78
:100A700008212A48FFF774FC2648007888B1102125
:100A80002648FFF764FC60B9012001F0DCF8002083
:100A90002049087010212148FFF759FC48B90D2062
:100AA00072E610211D48FFF752FC012801D11949B7
:100AB00008700A48007898B320211848FFF747FCCF
:100AC00070BB012001F0BFF800200449087020210C
:100AD0001248FFF73CFC60BB0E2055E68206002062
:100AE000830600208406002085060020860600205C
:100AF0008706002088060020890600208A0600203C
:100B00008B0600208C0600208D0600208E0600201B
:100B10008F0600209006002091060020000801406A
:100B2000FFE720212148FFF712FC012801D12049CD
:100B300008702048007888B140211C48FFF707FC66
:100B400060B9012001F07FF800201A4908704021A7
:100B50001648FFF7FCFB48B90F2015E64021134863
:100B6000FFF7F5FB012801D11249087012480078FF
:100B700088B180210D48FFF7EAFB60B9012001F040
:100B800062F800200C49087080210848FFF7DFFB5D
:100B900048B91020F8E580210448FFF7D8FB012868
:100BA00001D1054908700020EEE500000008014071
:100BB00082060020910600208F06002008B5012142
:100BC000042000F06DFC0F20ADF8000010208DF81F
:100BD000030003208DF8020069460748FFF72CFB4D
:100BE000F020ADF8000048208DF803006946024867
:100BF000FFF722FB08BD0000000801400348007811
:100C000010B1002001490870704700007B060020E9
:100C10000348007810B100200149087070470000B7
:100C20007C0600200348007810B1002001490870BC
:100C3000704700007D0600200348007810B10020B6
:100C400001490870704700007E06002003480078C4
:100C500010B1002001490870704700007F06002095
:100C60000348007810B10020014908707047000067
:100C70008006002003480078012802D100200149A5
:100C8000087070478106002010B50448007820B134
:100C900000200249087000F067F910BD72060020BC
:100CA00010B50448007820B100200249087000F017
:100CB000BBF910BD7306002010B50448007820B1C0
:100CC00000200249087000F073F910BD740600207E
:100CD0000348007810B100200149087070470000F7
:100CE000750600200348007810B100200149087003
:100CF000704700007606002010B5054800780128EE
:100D000004D100200249087000F014F910BD000061
:100D10007706002003480078012802D1002001490D
:100D2000087070477806002003480078012802D137
:100D300000200149087070477906002003480078B8
:100D4000012802D100200149087070477A0600206E
:100D500010B50020FFF7D0FC3B490870084600782A
:100D600011286AD2DFE800F069090F151B21272D31
:100D700033393F454B51575D6300012033490860CB
:100D8000334908705DE0012030490860314908703E
:100D900057E001202D4908602F49087051E00120DB
:100DA0002A4908602D4908704BE001202749086056
:100DB0002B49087045E00120244908602949087042
:100DC0003FE00120214908602749087039E00120EF
:100DD0001E4908602549087033E001201B4908605E
:100DE000234908702DE00120184908602149087046
:100DF00027E00120154908601F49087021E0012003
:100E0000124908601D4908701BE001200F49086065
:100E10001B49087015E001200C4908601949087049
:100E20000FE00120094908601749087009E0012016
:100E3000064908601549087003E00020034908606E
:100E400000BF00BF10BD0000040000200000002013
:100E5000720600207306002074060020750600202C
:100E6000760600207706002078060020790600200C
:100E70007A0600207B0600207C0600207D060020EC
:100E80007E0600207F0600208006002081060020CC
:100E90002DE9F0410746884614461D46284600F0D5
:100EA00033F8C5F1040007FA00F60F20284100EAE4
:100EB0000800064306F00F06E21704EBD262521157
:100EC000920002F1E022D2F800212146E31704EB60
:100ED000D3635B11A4EB431C012303FA0CF31A4305
:100EE0002046E31704EBD3635B119B0003F1E0237F
:100EF000C3F800210348005D40EA06100149085587
:100F0000BDE8F08100E400E00146072323EA010286
:100F10001202054B18684FF6FF031840034B1843A5
:100F20001043014B186070470CED00E00000FA051B
:100F300000BFFEE70B480078042803D105200949CB
:100F400008700EE007480078052803D106200549FF
:100F5000087006E003480078062802D10420014901
:100F6000087070471C00002010B500F00BF90F4806
:100F7000007818B904200D49087016E00B48007875
:100F8000042803D10120094908700EE007480078C1
:100F9000052803D102200549087006E003480078BF
:100FA000062802D103200149087010BD1C00002052
:100FB00010B500F0E7F81B48007818B9002019496F
:100FC00008702EE017480078042803D10020154946
:100FD000087026E013480078052803D10020114945
:100FE00008701EE00F480078062803D100200D4944
:100FF000087016E00B480078012803D10420094945
:1010000008700EE007480078022803D10520054942
:10101000087006E003480078032802D10620014941
:10102000087010BD1C0000200B480078042803D174
:101030000620094908700EE007480078062803D109
:1010400005200549087006E003480078052802D10C
:1010500004200149087070471C00002010B5214889
:10106000007800283CD000201E490870FFF770FE71
:101070001D4801780078401C1B4A10700A2918DDB1
:10108000002011460870194801780078401C174A62
:1010900010700A290DDD00201146087014480178EF
:1010A0000078401C124A10700A2902DD0020114607
:1010B0000870104801880088401C0E4A1080B1F565
:1010C000FA7F02DB0020114608800B480178007887
:1010D000401C094A1070C82902DD00201146087022
:1010E00010BD00005E0600205F06002064060020A0
:1010F00065060020620600206006002070470000A0
:1011000070B5002100230F22C47804B3154C246865
:1011100004F4E064C4F5E064210AC1F10403CA40A8
:10112000447804FA03F184781440214309010E4CF9
:101130000678A155047804F01F050124AC40057819
:101140006D11AD0005F1E025C5F8004109E0047816
:1011500004F01F050124AC40044D0678761145F8D3
:10116000264070BD0CED00E000E400E080E100E00E
:1011700002490143024A1160704700000000FA056D
:101180000CED00E010B5002000F03BF810BD2DE99B
:10119000F05F06460F4690461C46DDF828A04FF04B
:1011A000000BE11704EB5171C910A4EBC10131B977
:1011B0002046E11704EB5171C1F3C70506E0204654
:1011C000E11704EB5171C910491CCDB23D4614E042
:1011D0002946304600F08DF8B1460AE059460BF139
:1011E000010B1AF8010000F043FC09F1010000F0C6
:1011F000FF09C145F2DB681CC5B2A542E8DBBDE8CA
:10120000F09F70B50646002415E004F1B001C8B2A5
:1012100000F027FC002000F024FC102000F021FC4E
:10122000002504E0304600F023FC681CC5B2802D88
:10123000F8DB601CC4B2082CE7DB70BD10B5FFF70B
:10124000D7F8642000F02EFDAE2000F00AFC20202C
:1012500000F007FC102000F004FCB02000F001FCBE
:10126000C82000F0FEFB002000F0FBFB102000F087
:10127000F8FB402000F0F5FB812000F0F2FBFF209E
:1012800000F0EFFBA12000F0ECFBA62000F0E9FB52
:10129000A82000F0E6FB3F2000F0E3FBA42000F0D4
:1012A000E0FBD32000F0DDFB002000F0DAFBD520CE
:1012B00000F0D7FBF02000F0D4FBD92000F0D1FBE8
:1012C000222000F0CEFBDA2000F0CBFB122000F051
:1012D000C8FBDB2000F0C5FB202000F0C2FB8D2006
:1012E00000F0BFFB142000F0BCFBAF2000F0B9FB06
:1012F00010BD70B504460D4605F1B001C8B200F04E
:10130000B0FB102141EA141000F0ABFB04F00F0118
:1013100041F0010000F0A5FB70BD00002DE9F04197
:1013200080460E46174600247D0131464046FFF7B1
:10133000E0FF00BF06E00D49485D00F099FB6D1C21
:10134000601CC4B2102CF6DB701CC1B24046FFF723
:10135000D0FF002406E00549485D00F089FB6D1CC4
:10136000601CC4B2102CF6DBBDE8F0811D0000202B
:101370002DE9F0470646894617469A464FF0000881
:1013800000240025BAF1010F03D0BAF1020F5ED19B
:1013900025E020E0785D203800F0FF087E2E04DD97
:1013A000002609F1010000F0FF0949463046FFF729
:1013B000A0FF002409E008EB4801264A02EB4101A6
:1013C000085D00F055FB601CC4B2062CF3DBB01DB9
:1013D000C6B2681CC5B2785D0028DBD137E032E0C8
:1013E000785D203800F0FF08782E04DD002609F132
:1013F000010000F0FF0949463046FFF77AFF00245C
:1014000007E004EB0811144A505C00F031FB601C4B
:10141000C4B2082CF5DB09F10100C1B23046FFF778
:1014200068FF002408E004EB081108310A4A505C08
:1014300000F01EFB601CC4B2082CF4DB06F10800AF
:10144000C6B2681CC5B2785D0028C9D100BF00BF14
:10145000BDE8F08758230008802500087047000089
:1014600029B1064AD2690243044BDA6104E0034A17
:10147000D2698243014BDA617047000000100240DC
:1014800029B1064A12690243044B1A6104E0034A77
:1014900012698243014B1A6170470000001002403C
:1014A00029B1064A92690243044B9A6104E0034A57
:1014B00092698243014B9A6170470000001002401C
:1014C00030B500210022002400232D4D6D6805F069
:1014D0000C0121B1042905D0082923D105E0294DAB
:1014E000056022E0274D05601FE0254D6D6805F47D
:1014F0007012234D6D6805F48034022505EB92428D
:101500001CB9214D554305600BE01D4D6D6805F478
:1015100000351DB11C4D5543056002E0194D554382
:10152000056002E0174D056000BF00BF144D6D68F7
:1015300005F0F0010909154D6B5C0568DD4045605B
:101540000F4D6D6805F4E061090A104D6B5C45684C
:10155000DD4085600A4D6D6805F46051C90A0B4D88
:101560006B5C4568DD40C560054D6D6805F4404124
:10157000890B074D6B5CC568B5FBF3F5056130BDA4
:101580000010024000127A0000093D00920600207F
:10159000A2060020704710B500F002F810BD000050
:1015A0000CB50020019000903348006840F4803072
:1015B0003149086000BF3048006800F400300090F6
:1015C0000198401C0190009818B90198B0F5A06FDF
:1015D000F1D12948006800F4003010B101200090DA
:1015E00001E0002000900098012843D123480068C2
:1015F00040F01000214908600846006820F0030010
:1016000008600846006840F0020008601A48406818
:10161000194948600846406848600846406840F4F8
:10162000806048600846406820F47C1048600846A6
:10163000406840F4E81048600846006840F0807058
:10164000086000BF0C48006800F000700028F9D066
:101650000948406820F00300074948600846406890
:1016600040F00200486000BF0348406800F00C00F2
:101670000828F9D10CBD00000010024000200240F3
:10168000042808D14FF0E021096941F004014FF02E
:10169000E022116107E04FF0E021096921F0040127
:1016A0004FF0E022116170477047000010B51348F9
:1016B000006840F001001149086008464068104980
:1016C00008400E494860084600680E4908400B492A
:1016D00008600846006820F48020086008464068DA
:1016E00020F4FE0048604FF41F008860FFF753FFAE
:1016F0004FF000600449086010BD00000010024077
:101700000000FFF8FFFFF6FE08ED00E02848008823
:1017100000F00100002843D026480088401C2549DD
:10172000088025480088401C2349088023480088F9
:10173000401C2249088022480088401C204908801B
:1017400020480088401C1F4908801F480088401C12
:101750001D4908801D480088401C1C4908801C4801
:101760000088401C1A4908801A480088401C194902
:10177000088019480088401C1749088017480088CD
:10178000401C1649088016480088401C14490880EF
:1017900014480088401C1349088001201249087031
:1017A0000348008820F001000149088070470000CC
:1017B0001004004044060020460600204806002091
:1017C0004A0600204C0600204E060020500600204D
:1017D000520600205406002056060020580600201D
:1017E0005A0600205C0600205E06002070B5054603
:1017F0000C461048C06940F002000E49C8610E480E
:101800000580001F04800C482038008840F001004B
:1018100009492039088008482C38008840F0010028
:1018200005492C39088002231D2203210120FFF7DE
:101830002FFB70BD001002402C04004010B540F298
:1018400025511D4800F04AF810B31B4800F002F97A
:10185000C4B21A48008800F40040C8B9174800888C
:1018600000F4804060B10A2C03D0002013490880A6
:1018700020E01248008840F400401049088019E038
:101880000D2C06D10D48008840F480400B4908809B
:1018900010E00A480088C0F30D0009490C540748BD
:1018A0000088401C0549088008460088C72801DDDB
:1018B0000020088010BD00000038014070060020A4
:1018C000A806002021B1828942F40052828104E0FE
:1018D00082894DF6FF731A408281704770B50246C7
:1018E000002400230025002040F66A16B14200D1F2
:1018F00000BFC1F3421501F01F03012606FA03F3EE
:10190000012D02D19689334006E0022D02D1168ABC
:10191000334001E0968A33400C12012606FA04F4A3
:101920001688344013B10CB1012000E0002070BDD6
:10193000F0B50346002400260025002040F66A1773
:10194000B94200D100BF1846C1F3421401F01F068E
:10195000012707FA06F5012C01D10C3004E0022C16
:1019600001D1103000E014301AB107682F4307602E
:1019700002E00768AF430760F0BD00002DE9F047C3
:1019800086B005460E460024A24600BFA1460027A9
:10199000B08900B100BF2F462C8A4CF6FF7004407E
:1019A000F08804432C82AC894EF6F3100440B088D2
:1019B00031890843718908430443AC81AC8A4FF6EE
:1019C000FF400440B0890443AC8201A8FFF778FDD2
:1019D0001F48874202D1DDF810A001E0DDF80CA01D
:1019E000A88900F4004040B10AEBCA0000EB0A10DD
:1019F00031684900B0FBF1F807E00AEBCA0000EBE0
:101A00000A1031688900B0FBF1F86420B8FBF0F0EF
:101A100004012009642101FB1089A88900F4004019
:101A200040B1322000EBC900B0FBF1F000F007003C
:101A3000044308E0322000EB09106421B0FBF1F010
:101A400000F00F0004432C8106B0BDE8F0870000D1
:101A50000038014001468888C0F30800704700BF85
:101A6000FEE710B5044621460020FEF7D3FD10BD69
:101A700010B5044621464020FEF7CCFD10BD000005
:101A80000FB4054B10B503A9044A029800F02CF8D6
:101A900010BC5DF814FB0000F11C00086C0600206F
:101AA0000FB4084B10B504A902AA039800F01CF863
:101AB000044602A9002000F0C1F8204610BC5DF8E1
:101AC00014FB00003D1C000802E008C8121F08C1FA
:101AD000002AFAD170477047002001E001C1121FAF
:101AE000002AFBD1704700002DE9FF4F89B09B46CB
:101AF0000446002506E025280BD05A460B9990474E
:101B0000641C6D1C20780028F5D10DB02846BDE876
:101B1000F08F0027B8460122474900E0074314F838
:101B2000013F203B02FA03F00842F7D120782E282B
:101B300019D114F8010F47F004072A280ED06FF0CE
:101B40002F022078A0F1300109290CD808EB880178
:101B500002EB410100EB0108641CF2E70A98641CE7
:101B600050F8048B0A9020780028CED0642808D042
:101B7000692806D075281ED05A460B9990476D1CCF
:101B800058E00A994FF00A0901C90A91002802DABF
:101B900040422D2102E0390504D52B218DF820107B
:101BA000012103E0F90704D02021F7E78A4608AEB7
:101BB0000DE00021FAE70A994FF00A0901C90A91DC
:101BC000F7E74946FEF7C0FA303106F8011D002854
:101BD000F7D1ADEB060000F12009780701D44FF0F2
:101BE0000108C84502DDA8EB090000E0002080469E
:101BF000002706E008A85A46C05D0B9990476D1C67
:101C00007F1C5745F6DB04E030205A460B9990477D
:101C10006D1CB8F10001A8F10108F5DC05E016F82B
:101C2000010B5A460B9990476D1CB9F10001A9F1BF
:101C30000109F4DC641C65E7092801000A68531CEB
:101C40000B601070704710B5044602E0142000F0DD
:101C500029F8201EA4F10101CCB2F7D110BD00007B
:101C600010B56FF00400FFF70BFD0A4800680A4941
:101C7000B0FBF1F0094908700846007800EB40011C
:101C8000C1EBC0104FF6FF7101EAC00004490880A3
:101C900010BD00000800002000127A006606002037
:101CA000680600200146114A12884A434FF0E0239B
:101CB0005A6100229A611A46126942F001021A61C1
:101CC00000BF4FF0E022106900F001021AB100F4E9
:101CD0008032002AF5D04FF0E022126922F0010292
:101CE0004FF0E0231A6100229A61704768060020D5
:101CF00000BF054A128802F04002002AF9D0C2B2A1
:101D0000014B1B1D1A80704700380140FEF756FF3B
:101D10004FF4A060FFF72CFA4FF4E13000F0CCFA5A
:101D2000FFF79EFFFFF78AFA472140F2E730FFF7FF
:101D30005DFDFFF727FA012000F0AAF8002404E077
:101D40004FF4FA70FFF7AEFF641C052CF8DDFFF7C7
:101D500019FA13E00A480068012807D109480178F8
:101D600009A0FFF78DFE002005490860FEF7FCFA88
:101D7000FEF73DFAFFF772F900F00AF8EAE7000013
:101D8000000000200400002025640D0A000000006F
:101D900010B505480088B0F5FA7F04DB0020024941
:101DA0000880FEF77DFC10BD5C06002000B595B0F4
:101DB0001422354910A8FEF7B5F91422324914311E
:101DC0000BA8FEF7AFF914222F49283106A8FEF719
:101DD000A9F914222C493C3101A8FEF7A3F90322EA
:101DE00000210846FFF79AFA062200211020FFF78B
:101DF00095FA002202211046FFF790FA02221146BE
:101E00001020FFF78BFA012204210020FFF786FA49
:101E1000022204211020FFF781FA0522062100206A
:101E2000FFF77CFA072206211020FFF777FA0D2230
:101E300006216020FFF772FA0E2206217020FFF7BC
:101E40006DFA12480088B0F5FA7F1ADB00200F49BE
:101E50000880022310AA00212020FFF789FA02231C
:101E600001AA19462020FFF783FA02230BAA0421B6
:101E70002020FFF77DFA022306AA06212020FFF783
:101E800077FA15B000BD0000842C0008440600203D
:101E900038B50446012C08D10548082380220021CA
:101EA00000900846FFF773F900E000BF00BF38BD9F
:101EB0003D02002000B589B014220E4904A8FEF7A7
:101EC00031F90C4A143207CA01AB07C3022301AA35
:101ED00000210846FFF74CFA022301AA1946002008
:101EE000FFF746FA022304AA04210020FFF740FA74
:101EF00009B000BDB02B000800B589B014220E490E
:101F000004A8FEF70FF90C4A143207CA01AB07C345
:101F1000022304AA00210846FFF72AFA022301AA95
:101F200019460020FFF724FA022301AA0421002009
:101F3000FFF71EFA09B000BD702B000800B589B08C
:101F400014220E4904A8FEF7EDF80C4A143207CA11
:101F500001AB07C3022301AA00210846FFF708FAD4
:101F6000022304AA19460020FFF702FA022301AA5D
:101F700004210020FFF7FCF909B000BD902B0008F8
:101F800000B58FB0142246490AA8FEF7CBF81422F8
:101F90004349143105A8FEF7C5F8142240492831F9
:101FA0006846FEF7BFF87B223EA10AA8FFF778FD3E
:101FB0004FF4E4723BA105A8FFF772FD0522002152
:101FC0002020FFF7ABF9072200213020FFF7A6F908
:101FD000092200214020FFF7A1F90A220021502008
:101FE000FFF79CF9002202211046FFF797F9022221
:101FF00011461020FFF792F9052202212020FFF759
:102000008DF9072202213020FFF788F901220421EF
:102010000020FFF783F9022204211020FFF77EF948
:10202000052204212020FFF779F90722042130201E
:10203000FFF774F9092206210020FFF76FF90A2241
:1020400006211020FFF76AF90D2206216020FFF714
:1020500065F90E2206217020FFF760F91348008809
:10206000B0F5FA7F1ADB00201049088002236A4687
:1020700019464020FFF77CF902236A4604214020DC
:10208000FFF776F902230AAA19464020FFF770F9F4
:10209000022305AA04214020FFF76AF90FB000BD12
:1020A0000C2C00083A2564206D41000044060020F5
:1020B00000B58FB014223A490AA8FEF733F814226B
:1020C0003749143105A8FEF72DF814223449283178
:1020D0006846FEF727F802230AAA00211020FFF71E
:1020E00047F9052200212020FFF718F907220021D7
:1020F0003020FFF713F9092200214020FFF70EF9E5
:102100000A2200215020FFF709F9022305AA1946E7
:102110001020FFF72DF9032202212020FFF7FEF8FF
:10212000042202213020FFF7F9F809220221402081
:10213000FFF7F4F80A2202215020FFF7EFF80223FC
:102140006A4604211020FFF713F90F2204212020F2
:10215000FFF7E4F8102204213020FFF7DFF809220E
:1021600004214020FFF7DAF80A2204215020FFF76B
:10217000D5F80B2206210020FFF7D0F80C2206210B
:102180001020FFF7CBF80D2206216020FFF7C6F8DC
:102190000E2206217020FFF7C1F80FB000BD00002D
:1021A000D02B000800B58FB0142241490AA8FDF7D2
:1021B000B9FF14223E49143105A8FDF7B3FF1422DC
:1021C0003B4928316846FDF7ADFF0322002120205E
:1021D000FFF7A4F8042200213020FFF79FF809221E
:1021E00000214020FFF79AF80A2200215020FFF733
:1021F00095F8002202211046FFF790F802221146BE
:102200001020FFF78BF8032202212020FFF786F829
:10221000042202213020FFF781F80122042100204E
:10222000FFF77CF8022204211020FFF777F8032241
:1022300004212020FFF772F8042211463020FFF716
:102240006DF8092206210020FFF768F80A2206210E
:102250001020FFF763F80D2206216020FFF75EF8DB
:102260000E2206217020FFF759F812480088B0F5B9
:10227000FA7F1ADB00200F49088002236A461946BC
:102280004020FFF775F802236A4604214020FFF73B
:102290006FF802230AAA19464020FFF769F80223C3
:1022A00005AA04214020FFF763F80FB000BD00002D
:1022B000482C00084406002010B586B004460121D1
:1022C00044F20400FFF7ECF84FF40070ADF814008E
:1022D00003208DF8160018208DF8170005A91C485A
:1022E000FDF7AAFF4FF48060ADF8140004208DF8CC
:1022F000170005A91648FDF79FFF25208DF800005F
:1023000003208DF801008DF8020001208DF80300F4
:102310006846FEF7F5FE01940020ADF80800ADF820
:102320000A00ADF80C00ADF810000C20ADF80E005E
:1023300001A90848FFF722FB012240F22551054878
:10234000FFF7F6FA01210348FFF7BCFA06B010BD0B
:1023500000080140003801400000000000000000BB
:10236000002F000000000700070000147F147F14F6
:1023700000242A7F2A12006264081323003649557C
:10238000225000000503000000001C224100000054
:1023900041221C000014083E08140008083E0808EA
:1023A000000000A060000008080808080000606045
:1023B0000000002010080402003E5149453E000084
:1023C000427F4000004261514946002141454B3166
:1023D000001814127F10002745454539003C4A4932
:1023E00049300001710905030036494949360006A4
:1023F0004949291E0000363600000000563600000C
:102400000008142241000014141414140000412286
:10241000140800020151090600324959513E007C5E
:102420001211127C007F49494936003E4141412248
:10243000007F4141221C007F49494941007F090931
:102440000901003E4149497A007F0808087F0000E1
:10245000417F4100002040413F01007F081422419C
:10246000007F40404040007F020C027F007F040854
:10247000107F003E4141413E007F09090906003EB0
:102480004151215E007F09192946004649494931D9
:102490000001017F0101003F4040403F001F2040FC
:1024A000201F003F4038403F0063140814630007BA
:1024B0000870080700615149454300007F41410011
:1024C00000552A552A55000041417F0000040201B1
:1024D000020400404040404000000102040000208F
:1024E00054545478007F48444438003844444420CD
:1024F00000384444487F00385454541800087E097A
:1025000001020018A4A4A47C007F08040478000041
:10251000447D4000004080847D00007F10284400FE
:102520000000417F4000007C04180478007C08040F
:10253000047800384444443800FC2424241800184B
:10254000242418FC007C0804040800485454542037
:1025500000043F444020003C4040207C001C2040C0
:10256000201C003C4030403C004428102844001C03
:10257000A0A0A07C004464544C44141414141414FB
:10258000000000000000000000000000000000004B
:10259000000000F8000000000000003330000000E0
:1025A00000100C06100C06000000000000000000E7
:1025B00040C07840C0784000043F04043F04040059
:1025C000007088FC08300000001820FF211E000069
:1025D000F008F000E018000000211C031E211E007E
:1025E00000F00888700000001E2123241927211004
:1025F00010160E00000000000000000000000000A7
:10260000000000E01804020000000007182040004D
:1026100000020418E000000000402018070000003D
:10262000404080F0804040000202010F01020200A1
:10263000000000F0000000000101011F0101010085
:10264000000000000000000080B0700000000000EA
:102650000000000000000000000101010101010173
:10266000000000000000000000303000000000000A
:1026700000000000806018040060180601000000DF
:1026800000E010080810E000000F102020100F00DC
:10269000001010F8000000000020203F2020000063
:1026A00000700808088870000030282422213000BB
:1026B00000300888884830000018202020110E00C3
:1026C0000000C02010F8000000070424243F24006C
:1026D00000F80888880808000019212020110E0041
:1026E00000E0108888180000000F112020110E0053
:1026F00000380808C83808000000003F000000004B
:102700000070880808887000001C222121221C000B
:1027100000E010080810E0000000312222110F0034
:10272000000000C0C00000000000003030000000C9
:102730000000008000000000000080600000000039
:102740000000804020100800000102040810200052
:10275000404040404040400004040404040404009D
:102760000008102040800000002010080402010032
:10277000007048080808F000000000303601000032
:10278000C030C828E810E0000718272423140B00E5
:102790000000C038E0000000203C2302022738205F
:1027A00008F8888888700000203F202020110E0043
:1027B000C03008080808380007182020201008003A
:1027C00008F808080810E000203F202020100F0023
:1027D00008F88888E8081000203F202023201800EF
:1027E00008F88888E8081000203F20000300000057
:1027F000C03008080838000007182020221E0200F8
:1028000008F808000008F808203F210101213F20B6
:10281000000808F8080800000020203F20200000E1
:1028200000000808F8080800C08080807F000000D1
:1028300008F888C028180800203F2001263820000A
:1028400008F8080000000000203F20202020300071
:1028500008F8F800F8F80800203F003F003F20008B
:1028600008F830C00008F808203F200007183F0093
:10287000E01008080810E0000F10202020100F00C2
:1028800008F808080808F000203F210101010000B5
:10289000E01008080810E0000F18242438504F00FA
:1028A00008F8888888887000203F2000030C3020BA
:1028B00000708808080838000038202121221C00F8
:1028C000180808F8080818000000203F2000000041
:1028D00008F808000008F808001F202020201F002A
:1028E0000878880000C83808000007380E0100008A
:1028F000F80800F80008F800033C0700073C030054
:10290000081868808068180820302C03032C3020B9
:102910000838C800C83808000000203F2000000028
:1029200010080808C8380800203826212020180080
:10293000000000FE020202000000007F4040400054
:10294000000C30C000000000000000010638C0008C
:1029500000020202FE000000004040407F00000034
:102960000000040202020400000000000000000059
:102970000000000000000000808080808080808057
:10298000000202040000000000000000000000003F
:1029900000008080808000000019242222223F2035
:1029A00008F8008080000000003F112020110E0078
:1029B0000000008080800000000E11202020110007
:1029C000000000808088F800000E112020103F20B9
:1029D0000000808080800000001F2222222213003D
:1029E000008080F0888888180020203F2020000088
:1029F0000000808080808000006B9494949360003D
:102A000008F8008080800000203F210000203F2047
:102A100000809898000000000020203F2020000047
:102A2000000000809898000000C08080807F000037
:102A300008F8000080808000203F24022D30200014
:102A4000000808F8000000000020203F20200000BF
:102A50008080808080808000203F20003F20003FD9
:102A60008080008080800000203F210000203F20E7
:102A70000000808080800000001F202020201F0098
:102A8000808000808000000080FFA12020110E00C7
:102A90000000008080808000000E112020A0FF80B8
:102AA000808080008080800020203F212000010065
:102AB00000008080808080000033242424241900BA
:102AC000008080E0808000000000001F20200000C7
:102AD0008080000000808000001F202020103F2008
:102AE000808080000080808000010E300806010098
:102AF00080800080008080800F300C030C300F003D
:102B000000808000808080000020312E0E31200067
:102B1000808080000080808080818E701806010097
:102B200000808080808080000021302C22213000B5
:102B300000000000807C020200000000003F4040D6
:102B400000000000FF00000000000000FF00000087
:102B50000002027C800000000040403F00000000B6
:102B60000006010102020404000000000000000051
:102B70003E3E0000000000000000000000000000D9
:102B80000000000020200000000000000000000005
:102B90003E3E0000000000000000000000000000B9
:102BA00000000000202000000000000000000000E5
:102BB0003E3E000000000000000000000000000099
:102BC00000000000202000000000000000000000C5
:102BD000312E000000000000000000000000000096
:102BE00000000000322E0000000000000000000085
:102BF0000000000000000000332E00000000000074
:102C00000000000000000000000000003A7878207A
:102C10002000000000000000000000000000000094
:102C20003A7878202000000000000000000000003A
:102C3000000000003A20202020202020000000007A
:102C400000000000000000003A787820200000001A
:102C50000000000000000000000000003A7878202A
:102C60002000000000000000000000000000000044
:102C70003A2020202020202000000000000000003A
:102C8000000000003A7878202000000000000000DA
:102C900000000000000000003A78782020000000CA
:102CA0000000000000000000000000003A787820DA
:102CB00020000000000000000000000000000000F4
:102CC0003A7878202000000000000000000000009A
:102CD00000000000F42C000800000020A8060000FE
:102CE00098010008C8300008A8060020F004000081
:102CF000D81A00089184A24A0410090102030406AC
:102D00000708091A08012C88780F072901111E20CD
:102D100010484641012A7F053B4040208BC838209F
:102D20002E08040201FF1C190132FF158060F8070C
:102D300016FE02F202FE12F829111905178047301B
:102D40000F10272447807F180FC8B88FE888884065
:102D50004848E85F48484850161808FF040420080F
:102D6000020B1222D20A0615404042CC280904F474
:102D70009494FF9494F49F180D40201F20484442DF
:102D8000415F41424430211BF888012AFF0552F877
:102D90002A1F882A7F10249F80F0180D04242425E0
:102DA00026E43C242625242440180B412111898542
:102DB0008B8989F98901138101151060028C100B30
:102DC0004464544D46445464C404200804047E0101
:102DD00080403E22FE1C7E80E05F180908080CCA75
:102DE000494848C856296129C42963121F2A40C08E
:102DF00010101010D0FF905020504C434C502040E9
:102E0000401B0403221809414458414E60584710A2
:102E1000396016FE02F202FE2AF83C39601647308D
:102E20000F10272A474010100484E45C44C420108B
:102E3000E82724E4342CE0101002017F10103F80BA
:102E4000601F09093F49897F55404042CC2978617C
:102E5000173F90482018075E07182040802030094F
:102E6000FC24A4242222A362300F40201F205847B4
:102E70005048454245485040180AFE0202F21212DC
:102E800012F2028341180B7F2020272424242720BC
:102E9000207F11CA8001011110104030EF242480DE
:102EA000E49C105454FF547C10C01001017F215148
:102EB0002618274445455F4545445D80C040404253
:102EC00063C0601F60E020202060862DD01010308D
:102ED000AFD11EC0101010FF04031AD0701A604149
:102EE000600920FCA0E07C303030B8090C98B0C0FC
:102EF000E0B098884D3780F01C0703012A81E55B1C
:102F0000FC0F1610087C2F20203030103B80FF0F64
:102F10001BE13F6E3A1801130808200C60C047649B
:102F200024FFFF2627A1E0200BFEC606040484C46C
:102F3000641C082973190119392901400B18382418
:102F4000048AFBF1213110A00E077F49494848FF50
:102F5000484848711D071C070D182B35080C06033F
:102F60002C0F090801120C10080F080C04040406A9
:102F70003F080B0F080406A0C13809010706027FAD
:102F8000FF0301181B0302091901D11814020202E0
:102F90000361190D0703E17F0D19113131212D2C2A
:102FA000511F0404FF0606061C0377020299FA115A
:102FB00000092E8080C0404040C0800312E07000B5
:102FC0000E188088FCC08080F0584040602020703F
:102FD0000B0404C4741C2664C4040452FF13C07F91
:102FE0002A808719462AC08C1A3898290C19123958
:102FF00005190F8C80FF1F7F167F202060C01903EA
:103000004B80E06B280D010141414140430207D153
:1030100010909C393E1F4444444CFCD8584128121F
:103020004343FB622282420213FA0BCBEBB981FDD0
:103030000101111009FE8F808040301E03100C7FAB
:10304000C7C4446603074F49783813707F150F09CA
:10305000FF07133F01123F800B1F323213043F3032
:10306000190F3F10091C242730180C06018DC07160
:103070001F07DA1B0632151118093F2121203030B5
:10308000100F93311C0C08080A59212C020301D798
:10309000397859F829B901128E0C1810100C5A0100
:1030A000180A11073B012108083301010302060435
:1030B000043C091753C90139142C020304042009E4
:0830C0000607080902040608D6
:04000005080000ED02
:00000001FF
